{
  "contracts/GoodDay.sol": {
    "GoodDay": {
      "abi": [
        {
          "inputs": [
            {
              "internalType": "string",
              "name": "_name",
              "type": "string"
            }
          ],
          "stateMutability": "nonpayable",
          "type": "constructor"
        },
        {
          "inputs": [
            {
              "internalType": "string",
              "name": "_newName",
              "type": "string"
            }
          ],
          "name": "changeName",
          "outputs": [],
          "stateMutability": "nonpayable",
          "type": "function"
        },
        {
          "inputs": [],
          "name": "wishMe",
          "outputs": [
            {
              "internalType": "string",
              "name": "",
              "type": "string"
            }
          ],
          "stateMutability": "view",
          "type": "function"
        }
      ],
      "evm": {
        "bytecode": {
          "linkReferences": {},
          "object": "60806040526040518060400160405280600981526020017f476f6f6420446179200000000000000000000000000000000000000000000000815250600190816200004a919062000311565b503480156200005857600080fd5b5060405162000c8438038062000c8483398181016040528101906200007e91906200055c565b80600090816200008f919062000311565b5050620005ad565b600081519050919050565b7f4e487b7100000000000000000000000000000000000000000000000000000000600052604160045260246000fd5b7f4e487b7100000000000000000000000000000000000000000000000000000000600052602260045260246000fd5b600060028204905060018216806200011957607f821691505b6020821081036200012f576200012e620000d1565b5b50919050565b60008190508160005260206000209050919050565b60006020601f8301049050919050565b600082821b905092915050565b600060088302620001997fffffffffffffffffffffffffffffffffffffffffffffffffffffffffffffffff826200015a565b620001a586836200015a565b95508019841693508086168417925050509392505050565b6000819050919050565b6000819050919050565b6000620001f2620001ec620001e684620001bd565b620001c7565b620001bd565b9050919050565b6000819050919050565b6200020e83620001d1565b620002266200021d82620001f9565b84845462000167565b825550505050565b600090565b6200023d6200022e565b6200024a81848462000203565b505050565b5b8181101562000272576200026660008262000233565b60018101905062000250565b5050565b601f821115620002c1576200028b8162000135565b62000296846200014a565b81016020851015620002a6578190505b620002be620002b5856200014a565b8301826200024f565b50505b505050565b600082821c905092915050565b6000620002e660001984600802620002c6565b1980831691505092915050565b6000620003018383620002d3565b9150826002028217905092915050565b6200031c8262000097565b67ffffffffffffffff811115620003385762000337620000a2565b5b62000344825462000100565b6200035182828562000276565b600060209050601f83116001811462000389576000841562000374578287015190505b620003808582620002f3565b865550620003f0565b601f198416620003998662000135565b60005b82811015620003c3578489015182556001820191506020850194506020810190506200039c565b86831015620003e35784890151620003df601f891682620002d3565b8355505b6001600288020188555050505b505050505050565b6000604051905090565b600080fd5b600080fd5b600080fd5b600080fd5b6000601f19601f8301169050919050565b620004328262000416565b810181811067ffffffffffffffff82111715620004545762000453620000a2565b5b80604052505050565b600062000469620003f8565b905062000477828262000427565b919050565b600067ffffffffffffffff8211156200049a5762000499620000a2565b5b620004a58262000416565b9050602081019050919050565b60005b83811015620004d2578082015181840152602081019050620004b5565b60008484015250505050565b6000620004f5620004ef846200047c565b6200045d565b90508281526020810184848401111562000514576200051362000411565b5b62000521848285620004b2565b509392505050565b600082601f8301126200054157620005406200040c565b5b815162000553848260208601620004de565b91505092915050565b60006020828403121562000575576200057462000402565b5b600082015167ffffffffffffffff81111562000596576200059562000407565b5b620005a48482850162000529565b91505092915050565b6106c780620005bd6000396000f3fe608060405234801561001057600080fd5b50600436106100365760003560e01c80632faa7a991461003b5780635353a2d814610059575b600080fd5b610043610075565b6040516100509190610143565b60405180910390f35b610073600480360381019061006e91906102ae565b6100a0565b005b60606001600060405160200161008c9291906103fa565b604051602081830303815290604052905090565b80600090816100af91906105bf565b5050565b600081519050919050565b600082825260208201905092915050565b60005b838110156100ed5780820151818401526020810190506100d2565b60008484015250505050565b6000601f19601f8301169050919050565b6000610115826100b3565b61011f81856100be565b935061012f8185602086016100cf565b610138816100f9565b840191505092915050565b6000602082019050818103600083015261015d818461010a565b905092915050565b6000604051905090565b600080fd5b600080fd5b600080fd5b600080fd5b7f4e487b7100000000000000000000000000000000000000000000000000000000600052604160045260246000fd5b6101bb826100f9565b810181811067ffffffffffffffff821117156101da576101d9610183565b5b80604052505050565b60006101ed610165565b90506101f982826101b2565b919050565b600067ffffffffffffffff82111561021957610218610183565b5b610222826100f9565b9050602081019050919050565b82818337600083830152505050565b600061025161024c846101fe565b6101e3565b90508281526020810184848401111561026d5761026c61017e565b5b61027884828561022f565b509392505050565b600082601f83011261029557610294610179565b5b81356102a584826020860161023e565b91505092915050565b6000602082840312156102c4576102c361016f565b5b600082013567ffffffffffffffff8111156102e2576102e1610174565b5b6102ee84828501610280565b91505092915050565b7f4e487b7100000000000000000000000000000000000000000000000000000000600052602260045260246000fd5b6000600282049050600182168061033e57607f821691505b602082108103610351576103506102f7565b5b50919050565b600081905092915050565b60008190508160005260206000209050919050565b6000815461038481610326565b61038e8186610357565b945060018216600081146103a957600181146103be576103f1565b60ff19831686528115158202860193506103f1565b6103c785610362565b60005b838110156103e9578154818901526001820191506020810190506103ca565b838801955050505b50505092915050565b60006104068285610377565b91506104128284610377565b91508190509392505050565b60006020601f8301049050919050565b600082821b905092915050565b60006008830261046b7fffffffffffffffffffffffffffffffffffffffffffffffffffffffffffffffff8261042e565b610475868361042e565b95508019841693508086168417925050509392505050565b6000819050919050565b6000819050919050565b60006104bc6104b76104b28461048d565b610497565b61048d565b9050919050565b6000819050919050565b6104d6836104a1565b6104ea6104e2826104c3565b84845461043b565b825550505050565b600090565b6104ff6104f2565b61050a8184846104cd565b505050565b5b8181101561052e576105236000826104f7565b600181019050610510565b5050565b601f8211156105735761054481610362565b61054d8461041e565b8101602085101561055c578190505b6105706105688561041e565b83018261050f565b50505b505050565b600082821c905092915050565b600061059660001984600802610578565b1980831691505092915050565b60006105af8383610585565b9150826002028217905092915050565b6105c8826100b3565b67ffffffffffffffff8111156105e1576105e0610183565b5b6105eb8254610326565b6105f6828285610532565b600060209050601f8311600181146106295760008415610617578287015190505b61062185826105a3565b865550610689565b601f19841661063786610362565b60005b8281101561065f5784890151825560018201915060208501945060208101905061063a565b8683101561067c5784890151610678601f891682610585565b8355505b6001600288020188555050505b50505050505056fea2646970667358221220819baec8927256a630f212f6094687a539d64c66c6943ceedc6fc11a15e9018f64736f6c63430008130033",
          "opcodes": "PUSH1 0x80 PUSH1 0x40 MSTORE PUSH1 0x40 MLOAD DUP1 PUSH1 0x40 ADD PUSH1 0x40 MSTORE DUP1 PUSH1 0x9 DUP2 MSTORE PUSH1 0x20 ADD PUSH32 0x476F6F6420446179200000000000000000000000000000000000000000000000 DUP2 MSTORE POP PUSH1 0x1 SWAP1 DUP2 PUSH3 0x4A SWAP2 SWAP1 PUSH3 0x311 JUMP JUMPDEST POP CALLVALUE DUP1 ISZERO PUSH3 0x58 JUMPI PUSH1 0x0 DUP1 REVERT JUMPDEST POP PUSH1 0x40 MLOAD PUSH3 0xC84 CODESIZE SUB DUP1 PUSH3 0xC84 DUP4 CODECOPY DUP2 DUP2 ADD PUSH1 0x40 MSTORE DUP2 ADD SWAP1 PUSH3 0x7E SWAP2 SWAP1 PUSH3 0x55C JUMP JUMPDEST DUP1 PUSH1 0x0 SWAP1 DUP2 PUSH3 0x8F SWAP2 SWAP1 PUSH3 0x311 JUMP JUMPDEST POP POP PUSH3 0x5AD JUMP JUMPDEST PUSH1 0x0 DUP2 MLOAD SWAP1 POP SWAP2 SWAP1 POP JUMP JUMPDEST PUSH32 0x4E487B7100000000000000000000000000000000000000000000000000000000 PUSH1 0x0 MSTORE PUSH1 0x41 PUSH1 0x4 MSTORE PUSH1 0x24 PUSH1 0x0 REVERT JUMPDEST PUSH32 0x4E487B7100000000000000000000000000000000000000000000000000000000 PUSH1 0x0 MSTORE PUSH1 0x22 PUSH1 0x4 MSTORE PUSH1 0x24 PUSH1 0x0 REVERT JUMPDEST PUSH1 0x0 PUSH1 0x2 DUP3 DIV SWAP1 POP PUSH1 0x1 DUP3 AND DUP1 PUSH3 0x119 JUMPI PUSH1 0x7F DUP3 AND SWAP2 POP JUMPDEST PUSH1 0x20 DUP3 LT DUP2 SUB PUSH3 0x12F JUMPI PUSH3 0x12E PUSH3 0xD1 JUMP JUMPDEST JUMPDEST POP SWAP2 SWAP1 POP JUMP JUMPDEST PUSH1 0x0 DUP2 SWAP1 POP DUP2 PUSH1 0x0 MSTORE PUSH1 0x20 PUSH1 0x0 KECCAK256 SWAP1 POP SWAP2 SWAP1 POP JUMP JUMPDEST PUSH1 0x0 PUSH1 0x20 PUSH1 0x1F DUP4 ADD DIV SWAP1 POP SWAP2 SWAP1 POP JUMP JUMPDEST PUSH1 0x0 DUP3 DUP3 SHL SWAP1 POP SWAP3 SWAP2 POP POP JUMP JUMPDEST PUSH1 0x0 PUSH1 0x8 DUP4 MUL PUSH3 0x199 PUSH32 0xFFFFFFFFFFFFFFFFFFFFFFFFFFFFFFFFFFFFFFFFFFFFFFFFFFFFFFFFFFFFFFFF DUP3 PUSH3 0x15A JUMP JUMPDEST PUSH3 0x1A5 DUP7 DUP4 PUSH3 0x15A JUMP JUMPDEST SWAP6 POP DUP1 NOT DUP5 AND SWAP4 POP DUP1 DUP7 AND DUP5 OR SWAP3 POP POP POP SWAP4 SWAP3 POP POP POP JUMP JUMPDEST PUSH1 0x0 DUP2 SWAP1 POP SWAP2 SWAP1 POP JUMP JUMPDEST PUSH1 0x0 DUP2 SWAP1 POP SWAP2 SWAP1 POP JUMP JUMPDEST PUSH1 0x0 PUSH3 0x1F2 PUSH3 0x1EC PUSH3 0x1E6 DUP5 PUSH3 0x1BD JUMP JUMPDEST PUSH3 0x1C7 JUMP JUMPDEST PUSH3 0x1BD JUMP JUMPDEST SWAP1 POP SWAP2 SWAP1 POP JUMP JUMPDEST PUSH1 0x0 DUP2 SWAP1 POP SWAP2 SWAP1 POP JUMP JUMPDEST PUSH3 0x20E DUP4 PUSH3 0x1D1 JUMP JUMPDEST PUSH3 0x226 PUSH3 0x21D DUP3 PUSH3 0x1F9 JUMP JUMPDEST DUP5 DUP5 SLOAD PUSH3 0x167 JUMP JUMPDEST DUP3 SSTORE POP POP POP POP JUMP JUMPDEST PUSH1 0x0 SWAP1 JUMP JUMPDEST PUSH3 0x23D PUSH3 0x22E JUMP JUMPDEST PUSH3 0x24A DUP2 DUP5 DUP5 PUSH3 0x203 JUMP JUMPDEST POP POP POP JUMP JUMPDEST JUMPDEST DUP2 DUP2 LT ISZERO PUSH3 0x272 JUMPI PUSH3 0x266 PUSH1 0x0 DUP3 PUSH3 0x233 JUMP JUMPDEST PUSH1 0x1 DUP2 ADD SWAP1 POP PUSH3 0x250 JUMP JUMPDEST POP POP JUMP JUMPDEST PUSH1 0x1F DUP3 GT ISZERO PUSH3 0x2C1 JUMPI PUSH3 0x28B DUP2 PUSH3 0x135 JUMP JUMPDEST PUSH3 0x296 DUP5 PUSH3 0x14A JUMP JUMPDEST DUP2 ADD PUSH1 0x20 DUP6 LT ISZERO PUSH3 0x2A6 JUMPI DUP2 SWAP1 POP JUMPDEST PUSH3 0x2BE PUSH3 0x2B5 DUP6 PUSH3 0x14A JUMP JUMPDEST DUP4 ADD DUP3 PUSH3 0x24F JUMP JUMPDEST POP POP JUMPDEST POP POP POP JUMP JUMPDEST PUSH1 0x0 DUP3 DUP3 SHR SWAP1 POP SWAP3 SWAP2 POP POP JUMP JUMPDEST PUSH1 0x0 PUSH3 0x2E6 PUSH1 0x0 NOT DUP5 PUSH1 0x8 MUL PUSH3 0x2C6 JUMP JUMPDEST NOT DUP1 DUP4 AND SWAP2 POP POP SWAP3 SWAP2 POP POP JUMP JUMPDEST PUSH1 0x0 PUSH3 0x301 DUP4 DUP4 PUSH3 0x2D3 JUMP JUMPDEST SWAP2 POP DUP3 PUSH1 0x2 MUL DUP3 OR SWAP1 POP SWAP3 SWAP2 POP POP JUMP JUMPDEST PUSH3 0x31C DUP3 PUSH3 0x97 JUMP JUMPDEST PUSH8 0xFFFFFFFFFFFFFFFF DUP2 GT ISZERO PUSH3 0x338 JUMPI PUSH3 0x337 PUSH3 0xA2 JUMP JUMPDEST JUMPDEST PUSH3 0x344 DUP3 SLOAD PUSH3 0x100 JUMP JUMPDEST PUSH3 0x351 DUP3 DUP3 DUP6 PUSH3 0x276 JUMP JUMPDEST PUSH1 0x0 PUSH1 0x20 SWAP1 POP PUSH1 0x1F DUP4 GT PUSH1 0x1 DUP2 EQ PUSH3 0x389 JUMPI PUSH1 0x0 DUP5 ISZERO PUSH3 0x374 JUMPI DUP3 DUP8 ADD MLOAD SWAP1 POP JUMPDEST PUSH3 0x380 DUP6 DUP3 PUSH3 0x2F3 JUMP JUMPDEST DUP7 SSTORE POP PUSH3 0x3F0 JUMP JUMPDEST PUSH1 0x1F NOT DUP5 AND PUSH3 0x399 DUP7 PUSH3 0x135 JUMP JUMPDEST PUSH1 0x0 JUMPDEST DUP3 DUP2 LT ISZERO PUSH3 0x3C3 JUMPI DUP5 DUP10 ADD MLOAD DUP3 SSTORE PUSH1 0x1 DUP3 ADD SWAP2 POP PUSH1 0x20 DUP6 ADD SWAP5 POP PUSH1 0x20 DUP2 ADD SWAP1 POP PUSH3 0x39C JUMP JUMPDEST DUP7 DUP4 LT ISZERO PUSH3 0x3E3 JUMPI DUP5 DUP10 ADD MLOAD PUSH3 0x3DF PUSH1 0x1F DUP10 AND DUP3 PUSH3 0x2D3 JUMP JUMPDEST DUP4 SSTORE POP JUMPDEST PUSH1 0x1 PUSH1 0x2 DUP9 MUL ADD DUP9 SSTORE POP POP POP JUMPDEST POP POP POP POP POP POP JUMP JUMPDEST PUSH1 0x0 PUSH1 0x40 MLOAD SWAP1 POP SWAP1 JUMP JUMPDEST PUSH1 0x0 DUP1 REVERT JUMPDEST PUSH1 0x0 DUP1 REVERT JUMPDEST PUSH1 0x0 DUP1 REVERT JUMPDEST PUSH1 0x0 DUP1 REVERT JUMPDEST PUSH1 0x0 PUSH1 0x1F NOT PUSH1 0x1F DUP4 ADD AND SWAP1 POP SWAP2 SWAP1 POP JUMP JUMPDEST PUSH3 0x432 DUP3 PUSH3 0x416 JUMP JUMPDEST DUP2 ADD DUP2 DUP2 LT PUSH8 0xFFFFFFFFFFFFFFFF DUP3 GT OR ISZERO PUSH3 0x454 JUMPI PUSH3 0x453 PUSH3 0xA2 JUMP JUMPDEST JUMPDEST DUP1 PUSH1 0x40 MSTORE POP POP POP JUMP JUMPDEST PUSH1 0x0 PUSH3 0x469 PUSH3 0x3F8 JUMP JUMPDEST SWAP1 POP PUSH3 0x477 DUP3 DUP3 PUSH3 0x427 JUMP JUMPDEST SWAP2 SWAP1 POP JUMP JUMPDEST PUSH1 0x0 PUSH8 0xFFFFFFFFFFFFFFFF DUP3 GT ISZERO PUSH3 0x49A JUMPI PUSH3 0x499 PUSH3 0xA2 JUMP JUMPDEST JUMPDEST PUSH3 0x4A5 DUP3 PUSH3 0x416 JUMP JUMPDEST SWAP1 POP PUSH1 0x20 DUP2 ADD SWAP1 POP SWAP2 SWAP1 POP JUMP JUMPDEST PUSH1 0x0 JUMPDEST DUP4 DUP2 LT ISZERO PUSH3 0x4D2 JUMPI DUP1 DUP3 ADD MLOAD DUP2 DUP5 ADD MSTORE PUSH1 0x20 DUP2 ADD SWAP1 POP PUSH3 0x4B5 JUMP JUMPDEST PUSH1 0x0 DUP5 DUP5 ADD MSTORE POP POP POP POP JUMP JUMPDEST PUSH1 0x0 PUSH3 0x4F5 PUSH3 0x4EF DUP5 PUSH3 0x47C JUMP JUMPDEST PUSH3 0x45D JUMP JUMPDEST SWAP1 POP DUP3 DUP2 MSTORE PUSH1 0x20 DUP2 ADD DUP5 DUP5 DUP5 ADD GT ISZERO PUSH3 0x514 JUMPI PUSH3 0x513 PUSH3 0x411 JUMP JUMPDEST JUMPDEST PUSH3 0x521 DUP5 DUP3 DUP6 PUSH3 0x4B2 JUMP JUMPDEST POP SWAP4 SWAP3 POP POP POP JUMP JUMPDEST PUSH1 0x0 DUP3 PUSH1 0x1F DUP4 ADD SLT PUSH3 0x541 JUMPI PUSH3 0x540 PUSH3 0x40C JUMP JUMPDEST JUMPDEST DUP2 MLOAD PUSH3 0x553 DUP5 DUP3 PUSH1 0x20 DUP7 ADD PUSH3 0x4DE JUMP JUMPDEST SWAP2 POP POP SWAP3 SWAP2 POP POP JUMP JUMPDEST PUSH1 0x0 PUSH1 0x20 DUP3 DUP5 SUB SLT ISZERO PUSH3 0x575 JUMPI PUSH3 0x574 PUSH3 0x402 JUMP JUMPDEST JUMPDEST PUSH1 0x0 DUP3 ADD MLOAD PUSH8 0xFFFFFFFFFFFFFFFF DUP2 GT ISZERO PUSH3 0x596 JUMPI PUSH3 0x595 PUSH3 0x407 JUMP JUMPDEST JUMPDEST PUSH3 0x5A4 DUP5 DUP3 DUP6 ADD PUSH3 0x529 JUMP JUMPDEST SWAP2 POP POP SWAP3 SWAP2 POP POP JUMP JUMPDEST PUSH2 0x6C7 DUP1 PUSH3 0x5BD PUSH1 0x0 CODECOPY PUSH1 0x0 RETURN INVALID PUSH1 0x80 PUSH1 0x40 MSTORE CALLVALUE DUP1 ISZERO PUSH2 0x10 JUMPI PUSH1 0x0 DUP1 REVERT JUMPDEST POP PUSH1 0x4 CALLDATASIZE LT PUSH2 0x36 JUMPI PUSH1 0x0 CALLDATALOAD PUSH1 0xE0 SHR DUP1 PUSH4 0x2FAA7A99 EQ PUSH2 0x3B JUMPI DUP1 PUSH4 0x5353A2D8 EQ PUSH2 0x59 JUMPI JUMPDEST PUSH1 0x0 DUP1 REVERT JUMPDEST PUSH2 0x43 PUSH2 0x75 JUMP JUMPDEST PUSH1 0x40 MLOAD PUSH2 0x50 SWAP2 SWAP1 PUSH2 0x143 JUMP JUMPDEST PUSH1 0x40 MLOAD DUP1 SWAP2 SUB SWAP1 RETURN JUMPDEST PUSH2 0x73 PUSH1 0x4 DUP1 CALLDATASIZE SUB DUP2 ADD SWAP1 PUSH2 0x6E SWAP2 SWAP1 PUSH2 0x2AE JUMP JUMPDEST PUSH2 0xA0 JUMP JUMPDEST STOP JUMPDEST PUSH1 0x60 PUSH1 0x1 PUSH1 0x0 PUSH1 0x40 MLOAD PUSH1 0x20 ADD PUSH2 0x8C SWAP3 SWAP2 SWAP1 PUSH2 0x3FA JUMP JUMPDEST PUSH1 0x40 MLOAD PUSH1 0x20 DUP2 DUP4 SUB SUB DUP2 MSTORE SWAP1 PUSH1 0x40 MSTORE SWAP1 POP SWAP1 JUMP JUMPDEST DUP1 PUSH1 0x0 SWAP1 DUP2 PUSH2 0xAF SWAP2 SWAP1 PUSH2 0x5BF JUMP JUMPDEST POP POP JUMP JUMPDEST PUSH1 0x0 DUP2 MLOAD SWAP1 POP SWAP2 SWAP1 POP JUMP JUMPDEST PUSH1 0x0 DUP3 DUP3 MSTORE PUSH1 0x20 DUP3 ADD SWAP1 POP SWAP3 SWAP2 POP POP JUMP JUMPDEST PUSH1 0x0 JUMPDEST DUP4 DUP2 LT ISZERO PUSH2 0xED JUMPI DUP1 DUP3 ADD MLOAD DUP2 DUP5 ADD MSTORE PUSH1 0x20 DUP2 ADD SWAP1 POP PUSH2 0xD2 JUMP JUMPDEST PUSH1 0x0 DUP5 DUP5 ADD MSTORE POP POP POP POP JUMP JUMPDEST PUSH1 0x0 PUSH1 0x1F NOT PUSH1 0x1F DUP4 ADD AND SWAP1 POP SWAP2 SWAP1 POP JUMP JUMPDEST PUSH1 0x0 PUSH2 0x115 DUP3 PUSH2 0xB3 JUMP JUMPDEST PUSH2 0x11F DUP2 DUP6 PUSH2 0xBE JUMP JUMPDEST SWAP4 POP PUSH2 0x12F DUP2 DUP6 PUSH1 0x20 DUP7 ADD PUSH2 0xCF JUMP JUMPDEST PUSH2 0x138 DUP2 PUSH2 0xF9 JUMP JUMPDEST DUP5 ADD SWAP2 POP POP SWAP3 SWAP2 POP POP JUMP JUMPDEST PUSH1 0x0 PUSH1 0x20 DUP3 ADD SWAP1 POP DUP2 DUP2 SUB PUSH1 0x0 DUP4 ADD MSTORE PUSH2 0x15D DUP2 DUP5 PUSH2 0x10A JUMP JUMPDEST SWAP1 POP SWAP3 SWAP2 POP POP JUMP JUMPDEST PUSH1 0x0 PUSH1 0x40 MLOAD SWAP1 POP SWAP1 JUMP JUMPDEST PUSH1 0x0 DUP1 REVERT JUMPDEST PUSH1 0x0 DUP1 REVERT JUMPDEST PUSH1 0x0 DUP1 REVERT JUMPDEST PUSH1 0x0 DUP1 REVERT JUMPDEST PUSH32 0x4E487B7100000000000000000000000000000000000000000000000000000000 PUSH1 0x0 MSTORE PUSH1 0x41 PUSH1 0x4 MSTORE PUSH1 0x24 PUSH1 0x0 REVERT JUMPDEST PUSH2 0x1BB DUP3 PUSH2 0xF9 JUMP JUMPDEST DUP2 ADD DUP2 DUP2 LT PUSH8 0xFFFFFFFFFFFFFFFF DUP3 GT OR ISZERO PUSH2 0x1DA JUMPI PUSH2 0x1D9 PUSH2 0x183 JUMP JUMPDEST JUMPDEST DUP1 PUSH1 0x40 MSTORE POP POP POP JUMP JUMPDEST PUSH1 0x0 PUSH2 0x1ED PUSH2 0x165 JUMP JUMPDEST SWAP1 POP PUSH2 0x1F9 DUP3 DUP3 PUSH2 0x1B2 JUMP JUMPDEST SWAP2 SWAP1 POP JUMP JUMPDEST PUSH1 0x0 PUSH8 0xFFFFFFFFFFFFFFFF DUP3 GT ISZERO PUSH2 0x219 JUMPI PUSH2 0x218 PUSH2 0x183 JUMP JUMPDEST JUMPDEST PUSH2 0x222 DUP3 PUSH2 0xF9 JUMP JUMPDEST SWAP1 POP PUSH1 0x20 DUP2 ADD SWAP1 POP SWAP2 SWAP1 POP JUMP JUMPDEST DUP3 DUP2 DUP4 CALLDATACOPY PUSH1 0x0 DUP4 DUP4 ADD MSTORE POP POP POP JUMP JUMPDEST PUSH1 0x0 PUSH2 0x251 PUSH2 0x24C DUP5 PUSH2 0x1FE JUMP JUMPDEST PUSH2 0x1E3 JUMP JUMPDEST SWAP1 POP DUP3 DUP2 MSTORE PUSH1 0x20 DUP2 ADD DUP5 DUP5 DUP5 ADD GT ISZERO PUSH2 0x26D JUMPI PUSH2 0x26C PUSH2 0x17E JUMP JUMPDEST JUMPDEST PUSH2 0x278 DUP5 DUP3 DUP6 PUSH2 0x22F JUMP JUMPDEST POP SWAP4 SWAP3 POP POP POP JUMP JUMPDEST PUSH1 0x0 DUP3 PUSH1 0x1F DUP4 ADD SLT PUSH2 0x295 JUMPI PUSH2 0x294 PUSH2 0x179 JUMP JUMPDEST JUMPDEST DUP2 CALLDATALOAD PUSH2 0x2A5 DUP5 DUP3 PUSH1 0x20 DUP7 ADD PUSH2 0x23E JUMP JUMPDEST SWAP2 POP POP SWAP3 SWAP2 POP POP JUMP JUMPDEST PUSH1 0x0 PUSH1 0x20 DUP3 DUP5 SUB SLT ISZERO PUSH2 0x2C4 JUMPI PUSH2 0x2C3 PUSH2 0x16F JUMP JUMPDEST JUMPDEST PUSH1 0x0 DUP3 ADD CALLDATALOAD PUSH8 0xFFFFFFFFFFFFFFFF DUP2 GT ISZERO PUSH2 0x2E2 JUMPI PUSH2 0x2E1 PUSH2 0x174 JUMP JUMPDEST JUMPDEST PUSH2 0x2EE DUP5 DUP3 DUP6 ADD PUSH2 0x280 JUMP JUMPDEST SWAP2 POP POP SWAP3 SWAP2 POP POP JUMP JUMPDEST PUSH32 0x4E487B7100000000000000000000000000000000000000000000000000000000 PUSH1 0x0 MSTORE PUSH1 0x22 PUSH1 0x4 MSTORE PUSH1 0x24 PUSH1 0x0 REVERT JUMPDEST PUSH1 0x0 PUSH1 0x2 DUP3 DIV SWAP1 POP PUSH1 0x1 DUP3 AND DUP1 PUSH2 0x33E JUMPI PUSH1 0x7F DUP3 AND SWAP2 POP JUMPDEST PUSH1 0x20 DUP3 LT DUP2 SUB PUSH2 0x351 JUMPI PUSH2 0x350 PUSH2 0x2F7 JUMP JUMPDEST JUMPDEST POP SWAP2 SWAP1 POP JUMP JUMPDEST PUSH1 0x0 DUP2 SWAP1 POP SWAP3 SWAP2 POP POP JUMP JUMPDEST PUSH1 0x0 DUP2 SWAP1 POP DUP2 PUSH1 0x0 MSTORE PUSH1 0x20 PUSH1 0x0 KECCAK256 SWAP1 POP SWAP2 SWAP1 POP JUMP JUMPDEST PUSH1 0x0 DUP2 SLOAD PUSH2 0x384 DUP2 PUSH2 0x326 JUMP JUMPDEST PUSH2 0x38E DUP2 DUP7 PUSH2 0x357 JUMP JUMPDEST SWAP5 POP PUSH1 0x1 DUP3 AND PUSH1 0x0 DUP2 EQ PUSH2 0x3A9 JUMPI PUSH1 0x1 DUP2 EQ PUSH2 0x3BE JUMPI PUSH2 0x3F1 JUMP JUMPDEST PUSH1 0xFF NOT DUP4 AND DUP7 MSTORE DUP2 ISZERO ISZERO DUP3 MUL DUP7 ADD SWAP4 POP PUSH2 0x3F1 JUMP JUMPDEST PUSH2 0x3C7 DUP6 PUSH2 0x362 JUMP JUMPDEST PUSH1 0x0 JUMPDEST DUP4 DUP2 LT ISZERO PUSH2 0x3E9 JUMPI DUP2 SLOAD DUP2 DUP10 ADD MSTORE PUSH1 0x1 DUP3 ADD SWAP2 POP PUSH1 0x20 DUP2 ADD SWAP1 POP PUSH2 0x3CA JUMP JUMPDEST DUP4 DUP9 ADD SWAP6 POP POP POP JUMPDEST POP POP POP SWAP3 SWAP2 POP POP JUMP JUMPDEST PUSH1 0x0 PUSH2 0x406 DUP3 DUP6 PUSH2 0x377 JUMP JUMPDEST SWAP2 POP PUSH2 0x412 DUP3 DUP5 PUSH2 0x377 JUMP JUMPDEST SWAP2 POP DUP2 SWAP1 POP SWAP4 SWAP3 POP POP POP JUMP JUMPDEST PUSH1 0x0 PUSH1 0x20 PUSH1 0x1F DUP4 ADD DIV SWAP1 POP SWAP2 SWAP1 POP JUMP JUMPDEST PUSH1 0x0 DUP3 DUP3 SHL SWAP1 POP SWAP3 SWAP2 POP POP JUMP JUMPDEST PUSH1 0x0 PUSH1 0x8 DUP4 MUL PUSH2 0x46B PUSH32 0xFFFFFFFFFFFFFFFFFFFFFFFFFFFFFFFFFFFFFFFFFFFFFFFFFFFFFFFFFFFFFFFF DUP3 PUSH2 0x42E JUMP JUMPDEST PUSH2 0x475 DUP7 DUP4 PUSH2 0x42E JUMP JUMPDEST SWAP6 POP DUP1 NOT DUP5 AND SWAP4 POP DUP1 DUP7 AND DUP5 OR SWAP3 POP POP POP SWAP4 SWAP3 POP POP POP JUMP JUMPDEST PUSH1 0x0 DUP2 SWAP1 POP SWAP2 SWAP1 POP JUMP JUMPDEST PUSH1 0x0 DUP2 SWAP1 POP SWAP2 SWAP1 POP JUMP JUMPDEST PUSH1 0x0 PUSH2 0x4BC PUSH2 0x4B7 PUSH2 0x4B2 DUP5 PUSH2 0x48D JUMP JUMPDEST PUSH2 0x497 JUMP JUMPDEST PUSH2 0x48D JUMP JUMPDEST SWAP1 POP SWAP2 SWAP1 POP JUMP JUMPDEST PUSH1 0x0 DUP2 SWAP1 POP SWAP2 SWAP1 POP JUMP JUMPDEST PUSH2 0x4D6 DUP4 PUSH2 0x4A1 JUMP JUMPDEST PUSH2 0x4EA PUSH2 0x4E2 DUP3 PUSH2 0x4C3 JUMP JUMPDEST DUP5 DUP5 SLOAD PUSH2 0x43B JUMP JUMPDEST DUP3 SSTORE POP POP POP POP JUMP JUMPDEST PUSH1 0x0 SWAP1 JUMP JUMPDEST PUSH2 0x4FF PUSH2 0x4F2 JUMP JUMPDEST PUSH2 0x50A DUP2 DUP5 DUP5 PUSH2 0x4CD JUMP JUMPDEST POP POP POP JUMP JUMPDEST JUMPDEST DUP2 DUP2 LT ISZERO PUSH2 0x52E JUMPI PUSH2 0x523 PUSH1 0x0 DUP3 PUSH2 0x4F7 JUMP JUMPDEST PUSH1 0x1 DUP2 ADD SWAP1 POP PUSH2 0x510 JUMP JUMPDEST POP POP JUMP JUMPDEST PUSH1 0x1F DUP3 GT ISZERO PUSH2 0x573 JUMPI PUSH2 0x544 DUP2 PUSH2 0x362 JUMP JUMPDEST PUSH2 0x54D DUP5 PUSH2 0x41E JUMP JUMPDEST DUP2 ADD PUSH1 0x20 DUP6 LT ISZERO PUSH2 0x55C JUMPI DUP2 SWAP1 POP JUMPDEST PUSH2 0x570 PUSH2 0x568 DUP6 PUSH2 0x41E JUMP JUMPDEST DUP4 ADD DUP3 PUSH2 0x50F JUMP JUMPDEST POP POP JUMPDEST POP POP POP JUMP JUMPDEST PUSH1 0x0 DUP3 DUP3 SHR SWAP1 POP SWAP3 SWAP2 POP POP JUMP JUMPDEST PUSH1 0x0 PUSH2 0x596 PUSH1 0x0 NOT DUP5 PUSH1 0x8 MUL PUSH2 0x578 JUMP JUMPDEST NOT DUP1 DUP4 AND SWAP2 POP POP SWAP3 SWAP2 POP POP JUMP JUMPDEST PUSH1 0x0 PUSH2 0x5AF DUP4 DUP4 PUSH2 0x585 JUMP JUMPDEST SWAP2 POP DUP3 PUSH1 0x2 MUL DUP3 OR SWAP1 POP SWAP3 SWAP2 POP POP JUMP JUMPDEST PUSH2 0x5C8 DUP3 PUSH2 0xB3 JUMP JUMPDEST PUSH8 0xFFFFFFFFFFFFFFFF DUP2 GT ISZERO PUSH2 0x5E1 JUMPI PUSH2 0x5E0 PUSH2 0x183 JUMP JUMPDEST JUMPDEST PUSH2 0x5EB DUP3 SLOAD PUSH2 0x326 JUMP JUMPDEST PUSH2 0x5F6 DUP3 DUP3 DUP6 PUSH2 0x532 JUMP JUMPDEST PUSH1 0x0 PUSH1 0x20 SWAP1 POP PUSH1 0x1F DUP4 GT PUSH1 0x1 DUP2 EQ PUSH2 0x629 JUMPI PUSH1 0x0 DUP5 ISZERO PUSH2 0x617 JUMPI DUP3 DUP8 ADD MLOAD SWAP1 POP JUMPDEST PUSH2 0x621 DUP6 DUP3 PUSH2 0x5A3 JUMP JUMPDEST DUP7 SSTORE POP PUSH2 0x689 JUMP JUMPDEST PUSH1 0x1F NOT DUP5 AND PUSH2 0x637 DUP7 PUSH2 0x362 JUMP JUMPDEST PUSH1 0x0 JUMPDEST DUP3 DUP2 LT ISZERO PUSH2 0x65F JUMPI DUP5 DUP10 ADD MLOAD DUP3 SSTORE PUSH1 0x1 DUP3 ADD SWAP2 POP PUSH1 0x20 DUP6 ADD SWAP5 POP PUSH1 0x20 DUP2 ADD SWAP1 POP PUSH2 0x63A JUMP JUMPDEST DUP7 DUP4 LT ISZERO PUSH2 0x67C JUMPI DUP5 DUP10 ADD MLOAD PUSH2 0x678 PUSH1 0x1F DUP10 AND DUP3 PUSH2 0x585 JUMP JUMPDEST DUP4 SSTORE POP JUMPDEST PUSH1 0x1 PUSH1 0x2 DUP9 MUL ADD DUP9 SSTORE POP POP POP JUMPDEST POP POP POP POP POP POP JUMP INVALID LOG2 PUSH5 0x6970667358 0x22 SLT KECCAK256 DUP2 SWAP12 0xAE 0xC8 SWAP3 PUSH19 0x56A630F212F6094687A539D64C66C6943CEEDC PUSH16 0xC11A15E9018F64736F6C634300081300 CALLER "
        },
        "methodIdentifiers": {
          "changeName(string)": "5353a2d8",
          "wishMe()": "2faa7a99"
        }
      }
    }
  }
}